:100000000C943E000C945B000C945B000C945B0021
:100010000C945B000C945B000C945B000C945B00F4
:100020000C945B000C945B000C945B000C945B00E4
:100030000C945B000C945B000C945B000C945B00D4
:100040000C945B000C945B000C945B000C945B00C4
:100050000C945B000C945B000C945B000C945B00B4
:100060000C945B000C945B000C945B000C945B00A4
:100070000C945B000C945B000C945B0011241FBE7D
:10008000CFEFD4E0DEBFCDBF11E0A0E0B1E0E0E70C
:10009000F1E002C005900D92A230B107D9F721E03E
:1000A000A2E0B1E001C01D92A630B207E1F70E94C4
:1000B0005D000C94B6000C940000CF93DF93CDB795
:1000C000DEB785E290E025E5FC0120838BE290E03D
:1000D00025E5FC0120838091020190910301A0910C
:1000E0000401B0910501A061B06380930201909377
:1000F0000301A0930401B093050180910001882FB2
:1001000090E0A0E0B0E02227382F492F5A2F8091AD
:10011000020190910301A0910401B0910501822B8D
:10012000932BA42BB52B8093020190930301A093F2
:100130000401B093050180910101282F30E040E0D7
:1001400050E08091020190910301A0910401B091CF
:100150000501822B932BA42BB52B80930201909346
:100160000301A0930401B0930501ABCFF894FFCF36
:02017000FFFF8F
:00000001FF
