:100000000C943E000C9454000C9448000C9448004E
:100010000C9448000C9448000C9448000C94480040
:100020000C9448000C9448000C9448000C94480030
:100030000C9448000C9448000C9448000C94480020
:100040000C9448000C9448000C9448000C94480010
:100050000C9448000C9448000C9448000C94480000
:100060000C9448000C9448000C9448000C944800F0
:100070000C9448000C9448000C94480011241FBEB6
:10008000CFEFD8E0DEBFCDBF0E944C000C945E00E5
:100090000C940000EA9A0895509A8FEF84B987B9BA
:1000A000589A0E944A00FFCF1F920F920FB60F92EC
:1000B00011240F900FBE0F901F901895F894FFCF4A
:00000001FF
